:100000000C9449000C9459050C9463050C946D05EF
:100010000C9477050C9481050C948B050C941607B1
:100020000C9495050C9468000C9468000C94CC0D0D
:100030000C946A0F0C9423050C9439050C94D70585
:100040000C9412050C94660D0C9468000C946800D6
:100050000C9468000C9468000C9468000C94680080
:100060000C942E050C9468000C9468000C946800A5
:100070000C9468000C9468000C9468000C94680060
:100080000C9468000C9468000C94680000081C181C
:10009000141011241FBECFEFD0E1DEBFCDBF11E0A1
:1000A000A0E0B1E0E6E3F2E300E00BBF02C007909E
:1000B0000D92AE30B107D9F712E0AEE0B1E001C069
:1000C0001D92AB34B107E1F70E9434150C941A1954
:1000D0000C9400008FB7F894992708958FBF089566
:1000E0009C0180910001909101010197C1F4285970
:1000F000314029F5662319F58091C4018823F9F070
:1001000080910F018F5F80930F01909102018917F9
:10011000B1F480918B018D7F80938B0108952859D4
:10012000314059F4662349F48091C401882329F0B1
:1001300080910F018F5F80930F011092100108953D
:10014000FC0182819927582F442781819927482BC8
:10015000592BCA01892F99278695869583709070AF
:100160008230910559F08330910559F0892B19F4AB
:1001700020E030E008C02CE93FEF05C022E030E08D
:1001800002C028E030E0CA0184E0989F812D9927C1
:1001900011248230910559F08330910559F0892B53
:1001A00019F480E090E008C08CE99FEF05C082E080
:1001B00090E002C088E090E0280F391F2A5F3F4F8F
:1001C000CF01820F931F0895282F9FB7F8946623BD
:1001D00049F0E82FFF27E053FE4F8081882311F07C
:1001E00021E006C0E22FFF27E053FE4F608320E0AE
:1001F000892F99278FBF822F99270895E82F8FB7CE
:10020000F894282F332790E0FF27E053FE4F80819A
:10021000861709F491E02FBF892F99270895882325
:1002200011F06E9A08956E980895882311F06F9AD0
:1002300008956F98089580E00E940F01BA9ABB98C4
:10024000B99AB89A6C9A80E00E9415016B986A98E6
:1002500081E00E940F01709A8DB18C7F8DB9089555
:100260000F931F93CF93DF93182F8FB7F894C82F56
:10027000DD270C2F61E080E00E94E400882321F05C
:10028000CFBF85E090E024C0809106018823A1F4CF
:1002900080911601823081F409C082E080931601BA
:1002A000109206010E941B01B89AC0981093030196
:1002B00080E00FBF99270CC080911601882369F355
:1002C0008FB7F89499271092D0018FBF81E0F1CFBA
:1002D000DF91CF911F910F910895282F9FB7F89428
:1002E000E82FFF27E65CFE4F80818F3F81F4E0918D
:1002F0004902E21771F40BC020933A0204C0FF27B1
:10030000E65CFE4F20832093490220E007C025E0F1
:1003100005C080913A028F3F91F7EECF892F992740
:100320008FBF822F992708951F93182F81E00E9475
:100330000F011FB9779BFECF8FB199271F910895A9
:100340008F929F92AF92BF92CF92DF92EF92FF92E5
:100350000F931F93CF93DF938FB7F8949927C09093
:100360004302D09044028090950190909601C091F4
:100370007401D091750120911F0130912001EAE0B4
:10038000AE2EB12CAC0EBD1E2A153B0508F459014A
:100390008FBF7401EC0EFD1E86010C0F1D1F14C0D3
:1003A000C114D10419F0F801808101C080E00E94DD
:1003B00094018114910411F0F7018083219608942F
:1003C000E11CF11C0F5F1F4FC5010197C817D9072A
:1003D00038F381E00E9415019FB7F894C114D1044D
:1003E00031F0CC0EDD1EF60180818FB901C01FB83F
:1003F000D0937501C0937401892F99278FBF80E036
:1004000090E0DF91CF911F910F91FF90EF90DF90DF
:10041000CF90BF90AF909F908F9008952FB7F89492
:1004200033275093200140931F01909344028093FF
:10043000430270939601609395011092750110929A
:1004400074012FBF452B29F08FB10E94A00199277D
:10045000089587E00E946D0180E090E008958FB7D5
:10046000F89499271092D2018FBF08957FB7F8941E
:1004700062B72091220130912301409124015091D3
:10048000250106B601FE0FC081B792B7280F311DB6
:10049000411D511D2F5F3F4F4F4F5F4F290F311DA2
:1004A000411D511D04C0260F311D411D511D872FB7
:1004B00099278FBFCA01B9010895CF93DF93FC013B
:1004C000DC011196ED0129813327322F222781810A
:1004D00099278062282B392B2183232F33272983C7
:1004E00080E090E0DF91CF9108952F923F924F925C
:1004F0005F926F927F928F929F92AF92BF92CF92B4
:10050000DF92EF92FF920F931F93CF93DF93CDB7BC
:10051000DEB729970FB6F894DEBF0FBECDBF6FB719
:100520006983F8942090590130905A0140905B0102
:1005300050905C016624772488240EE4A02E13E8F2
:10054000B12ECC24DD24EE24FF2400E010E0222D87
:10055000332D442D552D662D772D882D90E00E944A
:10056000FC162A833B834C835D836E837F8388875D
:100570009987822E932EA42EB52E2401350100E2F8
:100580000E94FA17A22EB32EC42ED52EA3019201DB
:1005900056954795379527952A0D3B1D4C1D5D1D9A
:1005A00057FF05C05F772F5F3F4F4F4F5F4F20933F
:1005B000590130935A0140935B0150935C01E981EA
:1005C0008E2F99278FBFCA01B90129960FB6F894CB
:1005D000DEBF0FBECDBFDF91CF911F910F91FF9076
:1005E000EF90DF90CF90BF90AF909F908F907F90D3
:1005F0006F905F904F903F902F900895DF92EF9211
:10060000FF920F931F938FB7F894282F3327D22E82
:1006100091B782B746B7981711F041FF02C02FBFBC
:100620006AC0809173018823E1F10E943602E09054
:10063000CC01F090CD010091CE011091CF0120911D
:1006400034013091350140913601509137016E19D6
:100650007F09800B910B621773078407950720F0C1
:100660001092730171E01EC02E0D3F1D401F511FDF
:100670008091220190912301A0912401B091250144
:10068000281B390B4A0B5B0B273E310541055105F1
:1006900040F4822F223010F070E005C070E082E05C
:1006A00002C070E086EE682F615000B601FCFDCFFD
:1006B00082B7681709F46F5F2091220130912301FE
:1006C0004091240150912501DA01C9010196A11D33
:1006D000B11D860F911DA11DB11D82179307A4079F
:1006E000B50710F4622F609561BFDFBE772319F064
:1006F0008AE00E946D011F910F91FF90EF90DF90B3
:100700000895AFB7F894BB27E1E0E09373016093DD
:10071000CC017093CD018093CE019093CF012093B3
:100720003401309335014093360150933701AFBF08
:100730000E94FE02089580E88093380110925301D0
:1007400010923D021092390210924F010895CF93FA
:10075000DF93FC0115A6DC019E96ED011B821A8237
:10076000198280E886A7DF91CF9108958FB7F8941A
:1007700060917801709179012CB53DB506B602FE05
:1007800004C06F5F7F4F2CB53DB599278FBF882779
:100790009927CB017727662744275527622B732B90
:1007A000842B952B0895EF92FF920F931F930E9435
:1007B000B6037B018C01209163013091640140916B
:1007C00065015091660180915E0190915F01A09159
:1007D0006001B0916101820F931FA41FB51FE21643
:1007E000F3060407150730F082179307A407B5072F
:1007F00058F005C082179307A407B507E0F5E8167F
:10080000F9060A071B07B8F59C01AD012E193F092F
:10081000400B510B213060E8360760E0460760E08E
:10082000560768F180E090E8A0E0B0E0E80EF91E1D
:100830000A1F1B1FE0926301F0926401009365019F
:100840001093660180E090E8AFEFBFEFE80EF91E6D
:100850000A1F1B1F205030484040504020935E012B
:1008600030935F01409360015093610120E030E8D4
:1008700040E050E014C020E030E040E050E08093E1
:10088000630190936401A0936501B0936601109297
:100890005E0110925F011092600110926101A90146
:1008A000B7012CB53DB5C9018E199F090396841770
:1008B000950720F0B9016D5F7F4F02C0640F751F6F
:1008C0006115710511F461E070E0615070407BBD0D
:1008D0006ABD80E186BF87B7806187BF1F910F9196
:1008E000FF90EF9008950F931F930FB7F89411277F
:1008F0006093630170936401809365019093660136
:1009000020935E0130935F01409360015093610139
:100910000E94D3030FBF1F910F910895CF92DF92D2
:10092000EF92FF920F931F93CF93DF938C01F62EDC
:100930006A01E22E8FB7F894C82FDD2760E080E0CF
:100940000E94FE00882321F0CFBF80E090E01EC00F
:10095000CFBF0F0D111D802F80680E949401F82ECB
:1009600016950795802F807C0E9494010E2D0AC059
:10097000EE2DFF27E01BF109EC0DFD1D80810E948B
:10098000940101500023A1F78F2D9927DF91CF917A
:100990001F910F91FF90EF90DF90CF90089597B740
:1009A0009F7D97BF90E296BF882319F08EB5806433
:1009B00002C08EB58F7B8EBD87B7806287BF80E017
:1009C00090E00895AF92BF92CF92DF92EF92FF92A4
:1009D0000F931F93CF93DF93CDB7DEB728970FB652
:1009E000F894DEBF0FBECDBF20E070E0E0910001C3
:1009F000F091010132E14DE65CE46FE48091010188
:100A00009E2F28960FB6F894DEBF0FBECDBFDF91A4
:100A1000CF911F910F91FF90EF90DF90CF90BF90FB
:100A2000AF9008951F920F920FB60F9211248F93DB
:100A300083B783BF00B600FCFDCF8F910F900FBE30
:100A40000F901F90189578941F920F920FB60F92E7
:100A500011240F900FBE0F901F90189578941F923D
:100A60000F920FB60F9211240F900FBE0F901F9090
:100A7000189578941F920F920FB60F9211242F930E
:100A80003F938F939F932FB7F894332780917801EA
:100A900090917901019690937901809378012FBF0D
:100AA0009F918F913F912F910F900FBE0F901F90AC
:100AB00018951F920F920FB60F9211240F900FBE30
:100AC0000F901F9018951F920F920FB60F9211243E
:100AD0000F900FBE0F901F9018951F920F920FB698
:100AE0000F9211240F900FBE0F901F9018951F9218
:100AF0000F920FB60F9211240F900FBE0F901F9000
:100B000018951F920F920FB60F9211240F900FBEDF
:100B10000F901F9018951F920F920FB60F921124ED
:100B20000F900FBE0F901F9018951F920F920FB647
:100B30000F9211240F900FBE0F901F901895CF9316
:100B4000DF93CDB7DEB72C970FB6F894DEBF0FBE9C
:100B5000CDBF8FB7F894282FAE014F5F5F4FDA01FA
:100B6000E6EDF1E088E001900D928150E1F780918F
:100B70005401909155018987892F99278A878091FF
:100B80006701909168018B87892F99278C872FBFE8
:100B90002CE060E080E691E00E948E042C960FB677
:100BA000F894DEBF0FBECDBFDF91CF9108951F92A5
:100BB0000F920FB60F9211242F933F934F935F9391
:100BC0006F937F938F939F93AF93BF93EF93FF9315
:100BD00083B783BF00B600FCFDCF81B7992701968C
:100BE000AA27BB27209122013091230140912401A3
:100BF00050912501280F391F4A1F5B1F20932201A6
:100C000030932301409324015093250178940E944E
:100C1000FE02FF91EF91BF91AF919F918F917F91D4
:100C20006F915F914F913F912F910F900FBE0F9059
:100C30001F901895EF920F931F93AE2D99E0899F07
:100C4000F0011124E658FE4F408351836283738381
:100C50000483158326833783A17080858E7F8A2B3A
:100C6000826080878BE00E946D011F910F91EF9051
:100C700008950F931F93182F0FB7F89461E080E049
:100C80000E94E400882371F510930301809106010E
:100C90008823A9F580911601823089F586E00CC081
:100CA0000E941B0180911601882349F481E0809302
:100CB00016011092500188E00E946D012AC08091B7
:100CC00062018F3F31F5E0910501EE2311F11CC067
:100CD0001092040104C0FF27EE59FE4F10821092BB
:100CE000050117C081E090E002C0880F991F1A9596
:100CF000E2F720911501282B209315010AC080915D
:100D000016018823E1F6CCCF809104018F3F19F7BB
:100D1000DFCF802F99278FBF80E090E01F910F9148
:100D200008951F9383E00E9430019927182F88238C
:100D300019F083E00E943906812F99271F910895A9
:100D40001F93CF93DF93182F8FB7F894C82FDD2709
:100D500060E080E00E94FE00882321F0CFBF80E0A9
:100D600090E005C0CFBF812F0E9494019927DF91A9
:100D7000CF911F910895EF92FF920F931F93CF93FE
:100D8000DF93182F7B01042F8FB7F894C82FDD272E
:100D900060E080E00E94FE00882321F0CFBF80E069
:100DA00090E014C0CFBF1064812F992790936C01FD
:100DB00080936B010E949401182F402F5527B70193
:100DC00080E090E00E940E02812F9927DF91CF9161
:100DD0001F910F91FF90EF900895C09860911D01B1
:100DE00070911E0141E08FE30E94BB06089582E0EE
:100DF00090E090934A018093490181E080935301F0
:100E000020E030E080910301843011F421E030E0F3
:100E1000232B29F484E00E943001882319F40E94D6
:100E2000ED06089584E00E94390608951F920F92FE
:100E30000FB60F9211242F933F934F935F936F93AD
:100E40007F938F939F93AF93BF93EF93FF93809183
:100E5000490190914A01019749F482E090E0909312
:100E60004A01809349010E94F70605C080914F0115
:100E70008F5F80934F01FF91EF91BF91AF919F9151
:100E80008F917F916F915F914F913F912F910F9033
:100E90000FBE0F901F9018951F9380911501882306
:100EA00009F04BC0109103011F3F09F046C060E0FC
:100EB0000E94FE00882309F440C081E08093DF0196
:100EC000809139018823E1F11092DF0185E090E003
:100ED00045C0923069F5C09A8091040120E030E06D
:100EE0008F3F11F421E030E0232BE9F41093060149
:100EF0008F3F19F42FEF30E00DC0282F3327F90171
:100F0000EE59FE4F8081809304018F3F11F41093BE
:100F1000050110832093500181E08093160188E041
:100F20000E946D0105C0109306011092160111C0B8
:100F300080911601882369F00FC081E090E00EC017
:100F40008091060190911601882319F2923021F0C8
:100F5000EFCF80E00E940F0180E090E01F910895A4
:100F60001F93CF93DF939FB7F894C92FDD271C2FD2
:100F700090910301981721F0CFBF81E090E03AC033
:100F80008FEF80930301309115013323F1F48FB774
:100F9000F89499271092D0018FBF0E944C07CFBFC1
:100FA00011C02093030181E090E002C0880F991FD7
:100FB0004A95E2F7809538233093150186E00E9428
:100FC0006D011FBF80E090E015C080E065E0E32F79
:100FD000FF270E947D18292F492F5527CF01042E66
:100FE00002C0959587950A94E2F780FDDACF822FAB
:100FF0008F5FEFCFDF91CF911F9108951F93CF9314
:10100000DF938FB7F894C82FDD271C2F80914901FB
:1010100090914A01892B29F484E00E94B007CFBF48
:101020001EC01092530180914F01882311F0B7998F
:1010300004C00E9908C0882319F0815080934F0195
:101040000E94F7060BC081E090E090934A018093E4
:10105000490110924F0184E00E94B0071FBFDF9149
:10106000CF911F9108950E949B03C09AC09888E079
:101070000E94A00688E00E94A006C09A84E00E9418
:10108000B0070E94FE070895FF920F931F93CF931E
:10109000DF93F82E8B018FB7F894C82FDD2760E01F
:1010A00080E00E94FE00882321F0CFBF80E090E026
:1010B0000CC0CFBF8F2D0E949401812F99270E94D1
:1010C0009401802F0E9494019927DF91CF911F9165
:1010D0000F91FF9008951F931FB7F89480914E01D0
:1010E000882319F460E070E009C060E0809142025A
:1010F000882309F461E081E0682777278091560111
:10110000882319F480E090E00AC090E08091D50136
:10111000882309F491E081E09827892F9927762F79
:101120006627770F770F770FF4E0880F991FFA95EE
:10113000E1F7826E9262682B792B81E10E9444086C
:10114000812F99278FBF1F9108958FB7F894992702
:101150006091DE018FBF85E0689FB0011124625D60
:101160007E4F706488E10E9444080895EF92FF92D8
:101170001F93CF93DF93E0905701F0905801F70150
:1011800082A59927182F882309F41FE1C098809120
:101190004D01811749F0612F77276F717070606E74
:1011A000706885E10E94440810934D01F701108199
:1011B0008FB7F894C82FDD2760E080E00E94FE0022
:1011C000882311F0CFBF12C0CFBF8EE390E0909381
:1011D0006C0180936B018EE30E9494011150412FAA
:1011E000552760E070E0C7010E940E02DF91CF91A9
:1011F0001F91FF90EF9008950F931F93CF93DF936C
:10120000EC010FB7F89411270E94A000FC018FE3B6
:1012100080830FBF1092400210923F0261E082E093
:101220000E94E400882319F085E090E072C080916C
:10123000E0018F5F8093E00181508B838FB7F8943A
:10124000082F112762E081E00E94FE00882329F424
:101250000FBF0E942F0281E05BC08FB7F8949927DF
:1012600024E02093D1018FBFD0937201C09371010C
:101270000FBFFE013196818129819927982F8827F8
:101280003327822B932B80729C7C8983892F99270B
:1012900081832981982F882733272164822B932BE0
:1012A0008983892F992781831CA618A619A619AAB4
:1012B00018AA1FA680E88EA761E06093D401409130
:1012C0007101509172018FB7F894282F33278091C4
:1012D0001701909118018830910511F0019711F0D4
:1012E0002FBF15C082E090E0909318018093170102
:1012F00060934A0250935801409357011092210184
:101300002FBF0E949106882311F40E94B60880E046
:101310009927DF91CF911F910F910895CF93DF937C
:10132000DA01422F2D3118F082E090E05EC0ED012D
:101330008B876E83872F99278F832FB7F894332756
:1013400080915401909155012FBFFD018483892F15
:10135000992785832FB7F8943327809107019091BF
:1013600008012FBF8887892F992789873196818126
:1013700029819927982F8827332720643868822B62
:10138000932B8983892F99278183435F4C934D50F9
:1013900080910A01882359F010920A01642FCD012F
:1013A0000E94FC089927282F8823A9F417C0842FAE
:1013B00099279093700180936F01B0931C01A093C3
:1013C0001B018CE00E946D0180910A01882349F481
:1013D00089E090E00AC08FEF80930A01822F99275D
:1013E00004C010925D0180E090E0DF91CF910895FC
:1013F000CF93DF93FB01DB0116968683892F992714
:10140000ED01898386E08387809176019091770151
:10141000892B19F085E090E02BC0F0937701E093E1
:101420007601435F40834D5080910D01882319F46C
:1014300080E090E01DC08385ED0169817727762FDC
:10144000662726813327622B732B10920D01242FE0
:10145000AF010E948E099927282F882339F081E057
:1014600080930D011092770110927601822F9927B7
:10147000DF91CF910895AF92BF92CF92DF92EF921A
:10148000FF920F931F93CF93DF935B016C01C0E03A
:10149000D0E0EAE7F1E0608561FF73C0208131812F
:1014A00042815381E480F58006811781D601C50110
:1014B000821B930BA40BB50B8E159F05A007B107DC
:1014C00008F45FC060FF03C06D7F608708C02E0D09
:1014D0003F1D401F511F2083318342835383C130FE
:1014E00021F0C23009F053C025C08091100188233B
:1014F000A1F480910E0199278093A7011092A60173
:1015000081E08093A5011092A4011092A90110928C
:10151000A80188E991E00E945D0246E068E971E077
:1015200082E090E00E94F809882389F581E08093A9
:10153000100121C00E94750220910E0133272093D3
:10154000A7011092A60122E02093A5011092A40108
:101550006093A901672F77276093A80188E991E03C
:101560000E945D0246E068E971E081E090E00E943F
:10157000F809882361F480910E018F5F80930E013A
:1015800006C021963996C330D10509F084CF8BE08F
:101590000E946D01DF91CF911F910F91FF90EF900D
:1015A000DF90CF90BF90AF9008950F931F93CF938C
:1015B000DF93182FEB01042FE82FFF27EE0FFF1FFB
:1015C000EA58FE4F1182108210920D01E0917601CF
:1015D000F0917701309721F080913E0280FF0EC09C
:1015E00081E080930D0103C08EE00E946D01112304
:1015F000B9F4602FCE010E94700012C020812D50DE
:10160000332767817727762F662786819927682B6E
:10161000792BAF0183850E948E09882341F3E4CFA3
:10162000DF91CF911F910F9108959B0180910D0142
:10163000882349F4609176017091770162177307EE
:1016400011F40E94D50A08951F93182F81E090E0AD
:101650009093180180931701109239010E944C0752
:101660008FB7F8949927109311018FBF82E00E94E1
:101670006D011F910895CF92DF92EF92FF920F9329
:101680001F93CFB6F894DD240E947502DC01CB01D4
:1016900066E470E00E9489181BE0E12EF12CE80E50
:1016A000F91EF0924602E09245020E94B60300271E
:1016B0001127A80197010E947304CFBE1F910F91BB
:1016C000FF90EF90DF90CF9008951F93CF93DF931B
:1016D0008FB7F894C82FDD271C2F809117019091A8
:1016E00018010897C9F489E00E94A00683E00E94CF
:1016F000B007C09A81E090E09093180180931701A1
:101700008FB7F894992723E0209311018FBF82E0CF
:101710000E946D01CFBF30C0C09880914A028823DB
:1017200011F085E001C084E00E94A00683FD09C09D
:1017300080E00E94A00683FF04C085E090E020E0E6
:1017400003C083E090E021E090931801809317019B
:10175000C09A1FBF222341F01092210183E00E9412
:10176000B0070E943B0B08C00E94B60320E431E0A2
:1017700040E050E00E947304DF91CF911F910895E3
:10178000EF92FF920F931F93CF93DF938B01809182
:101790006B0190916C0186FF40C18F7B8F3309F004
:1017A0008EC1C0911D01D0911E01588150934B01F3
:1017B0008091490190914A018530910509F443C017
:1017C0008630910509F48AC0029709F01FC185E0AF
:1017D00090E090934A018093490140913801852F10
:1017E00099270196242F3327281739074CF1B799E9
:1017F00006C00E9904C0451B4150409338014091EA
:101800004B014A32E8F44423A1F0BE016F5F7F4FE1
:10181000483018F047E050E007C086E090E0909331
:101820004A0180934901552780E090E00E940E0212
:1018300046C110925301C09A84E00E94B007E3C0F1
:101840000E9433083CC186E090E090934A01809367
:10185000490180915601882309F439C08091D5014E
:101860008823A9F5898185FF32C08F814E812FB7EA
:10187000F894332760916701709168012FBF992711
:10188000982F88275527842B952B8617970759F073
:101890008F812E819927982F88273327822B932B8E
:1018A0008F5F9F4FA1F489818770813081F4C09A46
:1018B000C0988AE00E94A006C09AC09840914B014F
:1018C00047502896BE018FE30E94BB06F8C04091A6
:1018D0004B01475055272896BE01A6CFC09A80914C
:1018E0004F01882339F484E00E94B00780914F01B2
:1018F000882311F0B7990AC00E9B08C09091390255
:10190000992321F080914B018B3038F480911D0197
:1019100090911E010E94A7033DC0913001F5E09116
:101920003D02FF27EE0FFF1FEE0FFF1FEB51FE4F93
:101930002081318142815381E0911D01F0911E018E
:1019400021ABBB27A52F942F832F80ABCA01AA27D9
:10195000BB2787A7252F33274427552726A7809104
:101960003D029927019668E070E00E949D188093DF
:101970003D0280913902815080933902882351F0D1
:1019800080911D0190911E010E94A70310923D02BB
:101990001092390280914B01FE01E80FF11D808108
:1019A00087FF31C0012B79F169816770E0911D01DA
:1019B000F0911E01623019F5A0915701B0915801C4
:1019C000109709F180911701909118010797D9F4A8
:1019D000ED019B8183819817B1F487B78F7E87BF14
:1019E000908181E08CA7E90FF11D8291319688A743
:1019F00080818F7789A780E00E94240B04C061302A
:101A000011F489E02AC00E94FE0759C010925301C8
:101A1000C09A84E00E94B00752C08E3309F04FC0D4
:101A2000C09A80911701909118010897C9F4C09845
:101A300089E00E94A006C09A83E00E94B00781E07E
:101A400090E090931801809317018FB7F89499272D
:101A500023E0209311018FBF82E00E946D012FC00F
:101A600080914A02882349F484E090E09093180121
:101A7000809317010E94650B22C083E00E94B0078B
:101A800083E090E090931801809317010E94750203
:101A9000DC01CB0166E371E00E9489180BE0E02EC7
:101AA000F12CE80EF91EF0923301E09232010E940F
:101AB000B60300271127A80197010E947304DF9144
:101AC000CF911F910F91FF90EF9008951F920F9269
:101AD0000FB60F9211242F933F934F935F936F9301
:101AE0007F938F939F93AF93BF93EF93FF932FB108
:101AF000E0919501F0919601309739F08091740151
:101B000090917501E80FF91F2083809174019091E5
:101B100075010196909375018093740180E00E9495
:101B2000150140911F015091200180917401909105
:101B300075018417950718F40E94A0011CC06091DC
:101B40009501709196018091430290914402109208
:101B50009601109295011092440210924302109245
:101B6000200110921F0110927501109274012FB183
:101B700020E00E94C00BFF91EF91BF91AF919F9128
:101B80008F917F916F915F914F913F912F910F9026
:101B90000FBE0F901F90189578941F920F920FB65A
:101BA0000F9211242F923F924F925F926F927F92E9
:101BB0008F929F92AF92BF92CF92DF92EF92FF925D
:101BC0000F931F932F933F934F935F936F937F9345
:101BD0008F939F93AF93BF93CF93DF93EF93FF9335
:101BE000C6B5D7B58FB7F894282E0E94B6039B01CF
:101BF0002C1B3D0B442755272B013C01421A530A4D
:101C0000640A750A80911701909118018530910539
:101C100021F0069709F0E0C0BFC086E090E0909305
:101C200018018093170131E0332E30925201109247
:101C3000190180E00E94CF04E0915701F091580112
:101C400041AABB27A72D962D852D80ABC301AA27BE
:101C5000BB2787A7872D9927AA27BB2786A7E091AF
:101C60005701F091580185A5882309F484C060814B
:101C7000655077274F01860E971EF4012081E18081
:101C80008281A3809927AA27BB27BA2FA92F982F33
:101C90008827332744275527522F442733272227C5
:101CA000FF24002711278701FF24EE242E293F2936
:101CB000402B512BBB24CC24DD242A293B294C2941
:101CC0005D29822B932BA42BB52B84199509A6098A
:101CD000B7098383292F3A2F4B2F552722839D0144
:101CE0004427552721838B2F9927AA27BB27808339
:101CF000C09824E0A40180E090E00E948E04C09A85
:101D0000F4012081E1808281A3809927AA27BB2743
:101D1000BA2FA92F982F8827332744275527522FCA
:101D2000442733272227FF24002711278701FF2478
:101D3000EE242E293F29402B512BBB24CC24DD241B
:101D40002A293B294C295D29822B932BA42BB52BC7
:101D5000840D951DA61DB71D8383292F3A2F4B2F68
:101D6000552722839D014427552721838B2F9927AF
:101D7000AA27BB278083E0915701F0915801818108
:101D800085FF02C03092390183E00E94B00787B717
:101D90008F7E87BF84997AC01092520181E00E94A1
:101DA000CF04E0915701F0915801818185FF0FC068
:101DB00087E090E090931801809317010E94B6038A
:101DC00020E031E040E050E00E94730403C080E076
:101DD0000E94240B849B5AC080911901882391F59D
:101DE00080915201882371F511E0109352010E94F5
:101DF000CF0480B320913902283098F4E0913D025D
:101E0000E20FFF27E770F070EE0FFF1FEE0FFF1FCE
:101E1000EB51FE4F40825182628273822F5F20938A
:101E2000390210931901D0936E01C0936D0184990A
:101E30002DC09927A4E096958795AA95E1F7182FCC
:101E4000117001C010E0809152018130F9F41092BC
:101E500052010E94CF04109219011123B9F480910C
:101E60006D0190916E01C81BD90B2A9778F480916F
:101E70003902882319F081508093390280915701EB
:101E800090915801009711F00E94A7032FBEFF9177
:101E9000EF91DF91CF91BF91AF919F918F917F9102
:101EA0006F915F914F913F912F911F910F91FF90F3
:101EB000EF90DF90CF90BF90AF909F908F907F90EA
:101EC0006F905F904F903F902F900F900FBE0F90AC
:101ED0001F90189578941F920F920FB60F921124AD
:101EE0001F932F933F934F935F936F937F938F93A2
:101EF0009F93AF93BF93EF93FF9387B78F7E87BF77
:101F000078941FB7F89480915E0190915F01A09141
:101F10006001B09161010097A105B10509F051C0C0
:101F200080911701909118018530910561F18630FB
:101F3000910530F48330910549F0049781F51AC07A
:101F400087309105F1F0089751F514C0869B0FC0BA
:101F500084E090E090931801809317010E94B603EB
:101F600027E030E040E050E00E94730418C00E9477
:101F70003B0B15C00E949106882389F40E94650BD3
:101F80000EC080E00AC089E00E94A00681E00E94A5
:101F9000CF0483E00E94B00787E00E94240B809169
:101FA000120190911301019771F482E090E09093F7
:101FB000130180931201DE98DE9A80E00E943906B8
:101FC00002C00E94D303812F99278FBFFF91EF9109
:101FD000BF91AF919F918F917F916F915F914F9141
:101FE0003F912F911F910F900FBE0F901F9018954A
:101FF00061E081E00E94E4008823E9F48FB7F8945F
:10200000282F33278091120190911301892B11F011
:102010002FBF20C081E090E09093130180931201C4
:102020002FBFDD9A0E94B60324E130E040E050E08B
:102030000E9473040FC062E081E00E94FE008823CA
:1020400019F089E090E0089561E081E00E94FE00CF
:10205000882319F080E090E0089585E090E00895ED
:10206000AF92BF92CF92DF92EF92FF920F931F93A6
:10207000CF93DF93CDB7DEB7A8970FB6F894DEBF46
:102080000FBECDBF873009F400C2883098F483308A
:1020900009F4E3C0843038F4813009F487C0823019
:1020A00008F08AC024C0853009F4F9C0863008F0F1
:1020B0002FC1EEC08B3009F4F9C38C3038F489306D
:1020C00009F41AC28A3008F0BEC302C28D3039F05A
:1020D0008D3008F443C48E3009F098C48AC48091CE
:1020E0003E02882309F492C490E011E060C40FB767
:1020F000F894112781E00E94CF0441E0E42EF12CF6
:10210000F0921801E0921701109219011092390112
:1021100010924D010FBF0FB7F89411270E949B0337
:10212000F0924A01E09249011092530189B78F7BE6
:1021300089BF80E488BF8AB780628ABF8AB78F7EF2
:102140008ABF89B7806489BF0FBF8FB7F894082F03
:1021500011278091120190911301049719F483E0E3
:102160000E94A0060FBF0FB7F8941127C09A80E015
:102170000E94B0070FBF8FB7F894992722E02093F1
:10218000D1018FBF8091000190910101019709F069
:102190003DC40E943602AB01BC01EE2408EE13E000
:1021A00020E030E081E00E941A0630C48FB7F89436
:1021B00099271092D10171C08FB7F8949927F090A8
:1021C00011018FBF63E081E00E94FE00882359F176
:1021D0000FB7F8941127109218011092170187B7C2
:1021E0008F7E87BF87B78F7D87BF83E00E94B00750
:1021F000C09A0FBF0FB7F894112710924A0110929E
:1022000049010E949B03C09A89B78F7B89BF0FBF8A
:102210001092130110921201DE98DD98DE9A81E08F
:102220000E946D0107C08FB7F894992722E0209390
:10223000D1018FBF00917101109172010E942F0294
:1022400080913F0290914002892B09F0DFC38FEF0C
:1022500080930A014F2DB801A1C38FB7F894282F9E
:102260003327122F80914702882309F581E080935C
:1022700047028091120190911301049721F481E0AB
:102280000E94390603C084E00E946D011FBFBEC3D7
:102290008FB7F8949927109247028FBFB7C38FB7B3
:1022A000F894282F332780911401882311F02FBF31
:1022B000ADC32FBF80B3992736E0969587953A95A1
:1022C000E1F7182F11709091690180916A018917C7
:1022D000D9F01917C9F484E090E09093130180932A
:1022E00012018FB7F894992721E0209314018FBF32
:1022F00060E070E08DE10E9444080E949F05C09A52
:10230000C09880E00E946D0110936A0185E06DC065
:102310008FB7F8949927109103018FBF123009F4F9
:1023200067C0133030F4112359F0113009F06EC337
:1023300048C0133009F476C0143009F067C3A2C056
:10234000C0988FB7F894082F1127809112019091AF
:1023500013010297A1F583E090E09093130180931D
:10236000120168E170E08DE10E94440881E08093F1
:1023700069011092140180B3992726E096958795FC
:102380002A95E1F78170907080936A0185E00E9440
:102390006D0181E00E94A0066FE772E08CE10E946F
:1023A00044080E94A5080E946B0866E57AE287E16E
:1023B0000E9444086FEF70E885E10E9444080FBF57
:1023C00025C3C09886E00E94A0060E94A5080E942E
:1023D0006B080E949F05C09AC09883E00E94A006E7
:1023E000C09A81E00E94B00784E00E946D010EC394
:1023F000C0988FB7F894082F112760E080E00E9402
:10240000FE00882311F00FBF0AC00FBF83E50E94B2
:10241000940180E00E94940180E00E949401C09A9F
:1024200082E02DC08FB7F8949927209117018FBFB4
:10243000243039F0283041F0223001F50E94B608EE
:10244000E5C20E94650BE2C2C09889E00E94A00626
:10245000C09A83E00E94B0078FB7F894992721E0D3
:1024600030E030931801209317018FBF8FB7F89495
:102470009927109311018FBF82E0B7CF83E00E94AC
:10248000B007C4C20E94ED06C1C20FB7F89411276D
:1024900040911F015091200160919501709196012A
:1024A00080914302909144021092960110929501FE
:1024B00010924402109243021092200110921F01C8
:1024C000109275011092740120E00E94C00B77CF2A
:1024D0002FB7F8943327809150018093060182E052
:1024E000809316012FBF80910601882309F08EC2C8
:1024F000B89AC09886E079CFA0911D01B0911E01D5
:10250000FC909D012F0D311DF9018081881F8827C6
:10251000881FFD0183A7F90180818F77FD0181A7C5
:1025200021503040F9018081FD0180A7A0911D015B
:10253000B0911E01FD0132818FB7F8949927209147
:102540004E018FBF222309F490C0832F99279695BF
:10255000879596958795837090708230910541F5A7
:10256000878146812FB7F894332760916701709176
:1025700068012FBF9927982F88275527842B952BE3
:102580008617970719F481E090E06CC0FD01878100
:10259000268140E050E09927982F88273327822B07
:1025A000932B8F5F9F4F11F441E050E0CA015AC056
:1025B000039709F03FC19E012F5F3F4F46ED51E069
:1025C00088E0FA010190AF01F90101929F01815069
:1025D000C1F79E012F5D3F4FAE014F5F5F4F88E017
:1025E000FA010190AF01F90101929F018150C1F7F9
:1025F0009E01275F3F4FAE014F5D5F4F88E0FA01BC
:102600000190AF01F90101929F018150C1F79E0134
:102610002F5E3F4FAE01475F5F4F88E0FA010190A8
:10262000AF01F90101929F018150C1F79E01275E20
:102630003F4FAE014F5E5F4F88E0FA010190AF015E
:10264000F90101929F018150C1F748E050E0BE01BD
:10265000675E7F4FCD0106960E940619892B09F00F
:10266000E9C003C0882309F4E5C0FCE0FF1508F0C9
:10267000E1C0C0901D01D0901E01F6012281822F81
:102680009927F6E096958795FA95E1F7039719F45F
:1026900068E070E002C062E070E0822F99279695B2
:1026A00087959695879583709070039719F488E0C5
:1026B00090E002C082E090E026E030E0C20ED31E3F
:1026C00040E050E020E030E0F601E80FF91F8AEF2B
:1026D0009FEFC80ED91E05C08191480F511D2F5F75
:1026E0003F4F26173707C4F3F60163818FEF8093BE
:1026F00041028FB7F894782F20E030E0E6E2F1E075
:10270000808191818417950729F48281861731F1A0
:10271000209341022F5F3F4F33962430310581F7DC
:102720007FBF909141023FB7F8949F3F21F0809185
:102730001A018917A9F420911A01822F9927FC0107
:10274000EE0FFF1FE80FF91FEA5DFE4F5183408334
:1027500062832F5F237020931A010EC07FBF66C073
:10276000892F9927FC01EE0FFF1FE80FF91FEA5D83
:10277000FE4F518340836283832F99278FBF0FB70A
:10278000F8941127C6010E94A000FC0190810FBFA0
:10279000F60183A5882309F449C09F3309F046C098
:1027A000878146812FB7F894332760910701709194
:1027B00008012FBF9927982F88275527842B952B01
:1027C0008617970759F0878126819927982F8827A0
:1027D0003327822B932B8F5F9F4F41F5F601838523
:1027E000863021F5F3E1FF1609F580910001909103
:1027F00001010297D9F4F601848525859927982F40
:1028000088273327822B932B019781F48785809328
:102810000E010E943602AB01BC01E1E0EE2E0AE09F
:1028200010E020E030E082E00E941A06D0921E0103
:10283000C0921D018FB7F8949927109253018FBF52
:102840000E94FE07E3C080914C01882361F520912E
:10285000E1013091E2014091E3015091E401EFB7D1
:10286000F894FF276091CC017091CD018091CE0149
:102870009091CF01E0903401F09035010091360144
:10288000109137016E0D7F1D801F911FEFBF2093A8
:10289000E1013093E2014093E3015093E40110928F
:1028A0004C010E9481030E94360243C00E943602FE
:1028B0005B016C018FB7F8949927109273018FBF59
:1028C0006FEFE62E6FEFF62E6FEF062F6FE7162FE6
:1028D00060E0EAE7F1E0808581FF1CC080819181A2
:1028E000A281B381A6019501281B390B4A0B5B0B12
:1028F000DA01C9012481358146815781281B390BB2
:102900004A0B5B0B2E153F05400751071CF479015C
:102910008A0161E0399631E0E539F307E1F6662393
:1029200009F474C01E141F04100611062CF0C60111
:10293000B5010E943B0A6AC0E092E101F092E20117
:102940000093E3011093E40181E080934C01A8011E
:102950009701C601B5010E94810358C090915D01A5
:1029600080910A01981709F451C090930A019923A4
:10297000D1F400911B0110911C0160916F01C801FD
:102980000E94FC08482F5527442309F43FC08FEFCD
:1029900080930A0160911B0170911C01F8018385ED
:1029A0000E94150B33C08FEF80930A012FC0209136
:1029B0003E02812F8223C1F0E92FFF27EE0FFF1F78
:1029C000EA58FE4F4081518111821082812F8095FB
:1029D000282320933E02992339F463E0CA010E9420
:1029E0007000110F91E0E3CF9F5F983078F4110FE2
:1029F000DECF80910D01E82FFF27EE0FFF1FEA5871
:102A0000FE4F6081718141E00E94D50AA8960FB601
:102A1000F894DEBF0FBECDBFDF91CF911F910F9114
:102A2000FF90EF90DF90CF90BF90AF90089580918E
:102A30003A028F3FB1F0282F3327F901E65CFE4FB1
:102A4000808180933A028F3F11F4809349028FEF87
:102A500080832F3F31F0822F0E94301081E090E080
:102A6000089580E090E008951F93CF93DF93CDB752
:102A7000DEB7E0970FB6F894DEBF0FBECDBF1FB72D
:102A8000F8944FE050E06FEF70E08AE391E00E942D
:102A900013198FEF80933A028093490281E08EBD33
:102AA00088E080BF83E083BF8CB59DB54AE72CB535
:102AB0003DB52817390708F44150442311F0C901E6
:102AC000F6CF92B782B78917E9F32CB53DB592B727
:102AD00082B78917E9F38CB59DB5821B930B40969D
:102AE00055E0969587955A95E1F790933C0280932F
:102AF0003B0213BE83B78EBD8EB580BF12BE1DBC18
:102B00001CBC8FEF86BF86B780937C0080B7992767
:102B100087709070892BD1F7D29AD19AD09ADA9A8D
:102B2000D99AD89A15BA8FEF84BBD498DC981DBC7B
:102B30001CBC87B7846087BF8EB5887F84608EBDDC
:102B40000E9417158823E1F78091000190910101FF
:102B50000196AA27BB278093590190935A01A0930D
:102B60005B01B0935C018FEF80935101E6E2F1E0ED
:102B70008FEF9FEF918380831282339621E0E233BF
:102B8000F207C1F70E9475026093E0018091000195
:102B9000909101010196AA27BB2780935901909338
:102BA0005A01A0935B01B0935C0180B7886080BF3D
:102BB0008BE083BF86EE81BF87B7826087BF0E94AC
:102BC000FE0285E092E090931E0180931D018E9895
:102BD000B89A8C988FEF809362011092D001109276
:102BE000D1011092D2011092D301B89AD69AD59AF7
:102BF0008FB7F894992720910701309108018FBF72
:102C000030936801209367010E94E20429A73AA744
:102C10004BA75CA76DA77EA78FA798ABDE01919607
:102C2000FE01B99688E001900D928150E1F7DE0136
:102C30005196FE01B19688E001900D928150E1F726
:102C4000DE015996FE01719688E001900D92815047
:102C5000E1F7A6EDB1E0FE01799688E001900D92D2
:102C60008150E1F780910901992790935501809354
:102C700054018FE1809397018AE18093DE010E94E5
:102C8000E20429A73AA74BA75CA76DA77EA78FA749
:102C900098ABDE019196FE01B99688E001900D9205
:102CA0008150E1F7DE011196FE01B19688E00190B6
:102CB0000D928150E1F7DE011996FE01319688E010
:102CC00001900D928150E1F7A6EDB1E0FE01399639
:102CD00088E001900D928150E1F7A6EDB1E0FD0191
:102CE00037969C9180818D939083319781E0E93D67
:102CF000F807B9F781E080934E0110924202809369
:102D000056011092D5010E9417158823E1F7812FF3
:102D100099278FBF789480910001809348020E9488
:102D2000F80F8FB7F894482F55274BC087B79927CE
:102D300083709070892B19F4E5E0F0E013C080B740
:102D4000992787709070892BD1F781B792B7891B2B
:102D50008C3030F082B7853F18F4E3E0F0E002C039
:102D6000E2E0F0E087B7887BC1F480917D008B7F43
:102D7000A1F46E9912C08AB190919A00892B887142
:102D800061F48091740082FD08C0379B03C081E02C
:102D900090E005C085E090E002C080E090E025B7BB
:102DA0008E1708F4E82FFF27E457FF4FE491237EA6
:102DB0002062E22BE5BF78948895F89485B78F7DE3
:102DC00085BF80913A028F3F09F4B0CF282F332777
:102DD000F901E65CFE4F808180933A028F3F11F447
:102DE000809349028FEF80832F3F09F49FCF4FBF1D
:102DF000822F0E94301095CFACE2B0E0E2E0F7E124
:102E00000C94CF18222E332E442E552E662E772E5C
:102E1000882E992EFE013196A8E01192AA95E9F725
:102E200029823A824B825C826D827E828F82988672
:102E3000FE013996B8E01192BA95E9F7A986BA86EB
:102E4000CB86DC86ED86FE860F87188B89819A817A
:102E5000AB81BC8189A79AA7ABA7BCA77C018D01D8
:102E60008FEF9FEFA0E0B0E0E822F9220A231B23B6
:102E700089A59AA5ABA5BCA51D0144245524898527
:102E80009A85AB85BC858DA39EA3AFA3B8A75C0133
:102E90006D018FEF9FEFA0E0B0E0A822B922CA2217
:102EA000DB228DA19EA1AFA1B8A53D018824992464
:102EB000C801B701A60195010E94B01869A37AA3C1
:102EC0008BA39CA3C801B701A40193010E94B01871
:102ED0007B018C01C201B101A60195010E94B018CD
:102EE0005B016C01C201B101A40193010E94B01801
:102EF0003B014C01EA0CFB1C0C1D1D1D89A19AA174
:102F0000ABA1BCA19D01442755272E0D3F1D401F9D
:102F1000511F2A153B054C055D0540F480E090E00B
:102F2000A1E0B0E0680E791E8A1E9B1ECA01AA2786
:102F3000BB27860D971DA81DB91D8D8F9E8FAF8F46
:102F4000B8A3A9013327222789A19AA1ABA1BCA1CB
:102F5000A070B070280F391F4A1F5B1F298F3A8F4E
:102F60004B8F5C8FA98CBA8CCB8CDC8CED8CFE8C5F
:102F70000F8D18A1FE01719698E011929A95E9F7CC
:102F8000ED8AFE8A0F8B188F2D813E814F815885E7
:102F90006DA17EA18FA198A50E94B0183B014C01A4
:102FA0002D853E854F85588969A57AA58BA59CA559
:102FB0000E94B0182D893E894F89588D260F371FE2
:102FC000481F591F260D371D481D591D2D8B3E8B3F
:102FD0004F8B588F6D887E888F88988C2A2D3B2D3B
:102FE0004C2D5D2D662D772D882D992DE2E1AC9627
:102FF0000C94EB18A0E1B0E0E0E0F8E10C94CF18FD
:10300000222E332E442E552E662E772E882E992E64
:10301000002309F466C088E0FE01319611928A957A
:10302000E9F729833A834B835C836D837E838F82A8
:103030009887E0E2E01B1E16CCF52D813E814F8182
:103040005885602F772767FD7095DA01C901062E34
:1030500004C0B695A795979587950A94D2F78D8762
:103060009E87AF87B88B04C0220F331F441F551FA4
:10307000EA95D2F789819A81AB81BC8104C0B6956B
:10308000A795979587956A95D2F7282B392B4A2BC8
:103090005B2B29873A874B875C8729843A844B844A
:1030A0005C846D847E848F8498881BC01D861E86F8
:1030B0001F86188A2E2F332727FD309530952195AE
:1030C0003F4F8D819E81AF81B88504C0B695A7958D
:1030D000979587952A95D2F789879A87AB87BC877A
:1030E000DCCF222D332D442D552D662D772D882DA7
:1030F000992DE2E160960C94EB18991B79E004C0DD
:10310000991F961708F0961B881F7A95C9F7809526
:103110000895AA1BBB1B51E107C0AA1FBB1FA6171E
:10312000B70710F0A61BB70B881F991F5A95A9F770
:1031300080959095BC01CD01089597FB092E072637
:103140000AD077FD04D0E5DF06D000201AF4709590
:1031500061957F4F0895F6F7909581959F4F08955B
:10316000629FD001739FF001829FE00DF11D649F6B
:10317000E00DF11D929FF00D839FF00D749FF00DF7
:10318000659FF00D9927729FB00DE11DF91F639F98
:10319000B00DE11DF91FBD01CF01112408952F923B
:1031A0003F924F925F926F927F928F929F92AF92D7
:1031B000BF92CF92DF92EF92FF920F931F93CF9324
:1031C000DF93CDB7DEB7CA1BDB0B0FB6F894DEBFBB
:1031D0000FBECDBF09942A88398848885F846E84E1
:1031E0007D848C849B84AA84B984C884DF80EE802B
:1031F000FD800C811B81AA81B981CE0FD11D0FB634
:10320000F894DEBF0FBECDBFED010895FB01DC01D8
:1032100004C08D910190801921F441505040C8F7AD
:10322000881B990B0895DC0101C06D9341505040FB
:06323000E0F70895FFCF56
:0E323600010003FFFFFFFF010022FFFFFF0169
:00000001FF
